:100000000C94DC010C9404020C9404020C94040281
:100010000C9404020C9404020C9404020C94040248
:100020000C9404020C9404020C94F61A0C94881993
:100030000C9404020C9404020C9404020C94040228
:100040000C9404020C94E10E0C9404020C9404022F
:100050000C9404020C9404020C9404020C943D10C1
:100060000C9404020C941A150C944C150C94040274
:100070000C9404020C9404020C9404020C940402E8
:100080000C9404020C9404020C9404020C940402D8
:100090000C9404020C9404020C9404020C940402C8
:1000A0000C9404020C9404020C9404028B11901121
:1000B00095119F11A911F311F311F311B311BD1192
:1000C000C711D111DE11F311E61114121712061225
:1000D0000A1210123812381238121B121F12231271
:1000E00029122D1238123312496E76616C69642020
:1000F000485720636D643A2025730076657200309E
:100100002E322E3400682D62656174003130006239
:100110007566662D696E003235360064657600417D
:10012000726475696E6F2059756E00637075004159
:10013000546D656761333255340000436F6E6E65F0
:100140006374696E6720746F2025642E25642E25E4
:10015000642E25643A256400436F6E6E656374698E
:100160006E6720746F2025733A25640052656164C0
:10017000792100436F6E6E656374206661696C65FA
:10018000642028636F64653A2025642900496E76EF
:10019000616C6964206175746820746F6B656E00B2
:1001A00054696D656F75740048656172746265614C
:1001B000742074696D656F757400426C796E6B2084
:1001C00076302E322E340042726964676520696E83
:1001D00069742E2E2E005D200054726F75626C655E
:1001E0002064657465637465643A20687474703A59
:1001F0002F2F74696E792E63632F626C796E6B2D6D
:100200006275672325730072756E2D62726964676B
:10021000650A000A000A00C40EC40EC40EC40EC44F
:100220000EC40EC40EC40EC40EC40EC40EC40EC43E
:100230000EC40EC40EC40EC40EC40EC40EC40EC42E
:100240000EC40EC40EC40EC40EC40EC40EC40EC41E
:100250000EC40EC40EC40EC30EC30EC30EC30EC313
:100260000EC30EC30EC30EC30EC30EC30EC30EC306
:100270000EC30EC30EC30EC30EC30EC30EC30EC3F6
:100280000EC30EC30EC30EC30EC30EC30EC30EC3E6
:100290000EC30EC30EC30E070605040100080A0BA9
:1002A0000C0D090000000200090F0000030401000A
:1002B0000C00000000000000000000000000000032
:1002C0000004080201104080401020408040800857
:1002D00002040180402010020110801020404004E0
:1002E00004040404030405020202020403020202DD
:1002F00002060606060606040402020204000000C6
:10030000002300260029002C002F000000000025FB
:100310000028002B002E00310000000000240027E0
:10032000002A002D003000080B0002020201000923
:100330000400000102020000052400100105240150
:1003400001010424020605240600010705810310AB
:10035000004009040100020A0000000705020240F3
:1003600000000705830240000012010002EF0201B5
:1003700040412341800001010203011201000200FB
:1003800000004041234180000101020301417264E9
:1003900075696E6F204C4C430041726475696E6FD5
:1003A0002059756E0004030904008908FB0BB80E80
:1003B000B8137C150F16F00811241FBECFEFDAE03A
:1003C000DEBFCDBF11E0A0E0B1E0EAE6F5E402C097
:1003D00005900D92AA3DB107D9F723E0AAEDB1E04F
:1003E00001C01D92AD3BB207E1F713E0C6EBD3E0CD
:1003F00004C02297FE010E945B1DCA3AD107C9F7CB
:100400000E947C1C0C94A8220C9400000F931F9354
:10041000CF93DF93CDB7DEB7C058D1090FB6F894AC
:10042000DEBF0FBECDBF8E0109571F4FF80181916E
:1004300091918F016BE58FEA92E00E947F160E94F6
:100440008710AB01BC012AE030E08FEA92E00E9405
:10045000F51666ED71E08FEA92E00E945C16980155
:10046000C957DF4F48815981C758D04060E870E0D4
:10047000CE0101960E94BD1FBE016F5F7F4F8FEAC4
:1004800092E00E948A16C058DF4F0FB6F894DEBF84
:100490000FBECDBFDF91CF911F910F910895DC0169
:1004A000ED91FC910288F389E02D0994DC01ED9136
:1004B000FC910280F381E02D0994CF93DF93EB014F
:1004C00045E050E0FC01808191810E943D1700973A
:1004D00099F00597A1F489819A819827892798270F
:1004E0009A8389838B819C819827892798279C836D
:1004F0008B8385E090E005C080E090E002C08FEF44
:100500009FEFDF91CF910895DC01ED91FC91119760
:1005100001900020E9F7ED93FC9308950F931F934A
:10052000CF93DF93EC01FB0101900020E9F78F01ED
:10053000061B170B8A819B81A801480F591F2C812C
:100540003D812417350768F028813981A801820F81
:10055000931F0E94771F8A819B81800F911F9B832D
:100560008A83DF91CF911F910F9108950F931F936D
:10057000CF93DF9340E855E260E070E08FEA92E0CD
:100580000E94B2138AEB91E09F938F930E94060220
:100590008AE091E09093F7018093F60187EC91E077
:1005A0009F938F930E94060226E040E950ED63E09E
:1005B00070E080917802909179020E94B8148FE6E1
:1005C00092E00E94F40AE091F401F091F50189E4CF
:1005D00091E0918780878AEF90E2938782870CED84
:1005E00011E00F900F900F900F90C2E0D0E0BE018D
:1005F000C8010E94371021960D5F1F4FCA30D105E8
:10060000B1F7DF91CF911F910F9108954F925F92B3
:100610006F927F928F929F92AF92BF92CF92DF9212
:10062000EF92FF920F931F93CF93DF9300D000D0F0
:100630001F92CDB7DEB75C01762E2A014901DC019D
:10064000ED91FC9180819181DC01ED91FC91048818
:10065000F589E02D0995882309F4C6C04114510499
:10066000B1F4F501448855884114510481F4809116
:10067000DA019091DB01019611F481E090E0909312
:10068000DB018093DA014090DA015090DB0179823E
:100690005424452454245B824A82C8018C0D9D1D3C
:1006A0009827892798279D838C83D501ED91FC910C
:1006B00045E050E0BE016F5F7F4F808191810E94D5
:1006C00056022C01772061F10115110559F0D50171
:1006D000ED91FC91A801B401808191810E945602A4
:1006E000480E591EC114D10459F0D501ED91FC9169
:1006F000A601B701808191810E945602480E591EC1
:10070000B5E0CB0ED11CC00ED11E4C145D0441F0DF
:10071000D501ED91FC91808191810E944F0264C0CE
:100720000E948710F501C088D188E288F38897017C
:10073000860155E036952795179507955A95D1F777
:1007400036014701601A710A820A930A94018301F3
:10075000C084D184E284F3843B014C016C187D0891
:100760008E089F0874016301E5E0F694E794D7943E
:10077000C794EA95D1F7C114D104E104F10421F43E
:10078000CC24CA94DC2C76010C0D1D1D2E1D3F1DA2
:10079000D50150960D931D932D933C935397F501DE
:1007A00060877187828793870233110521053105A0
:1007B000D8F488E591E09F938F9389ED91E09F9322
:1007C0008F930E940602D501ED91FC918081918169
:1007D0000E944F0268E873E180E090E00E94B6104A
:1007E0000F900F900F900F900F900F900F900F9011
:1007F0000F90DF91CF911F910F91FF90EF90DF90BD
:10080000CF90BF90AF909F908F907F906F905F90B0
:100810004F9008956F927F929F92AF92BF92CF9226
:10082000DF92EF92FF920F931F93CF93DF9300D04D
:1008300000D000D0CDB7DEB75C01DC01ED91FC91BA
:10084000808191810E944F02F50100811181D801C0
:1008500018968D919C911997009759F11B962C91A0
:100860001B972F931A962C912F939F938F9388E524
:1008700091E09F938F930E940602F80180819181FD
:10088000DC01ED91FC91D8011A964D915C911B977A
:1008900018966D917C9119970684F785E02D09953E
:1008A000992493940F900F900F900F900F900F90AA
:1008B00047C0F80184819581A681B781892B8A2B55
:1008C0008B2B09F4D1C083858F9382858F93878189
:1008D0001F928F9386811F928F9385811F928F9392
:1008E00084811F928F938BE391E09F938F930E945B
:1008F0000602F80180819181DC01ED91FC91048474
:10090000F585E02DD8011A964D915C911B9726EC48
:1009100031E03A83298314960D911D912D913C91DC
:1009200017970B831C832D833E83BE016F5F7F4F20
:100930000995992493940FB6F894DEBF0FBECDBFEE
:10094000019709F091C088EE93E0A0E0B0E0F501D6
:10095000808B918BA28BB38B648875886114710432
:1009600081F48091DA019091DB01019611F481E02C
:1009700090E09093DB018093DA016090DA0170904F
:10098000DB01D50112962D913C911397F90101904D
:100990000020E9F78F0101501109021B130BC12C34
:1009A000D12CE12CF12CA30162E0C5010E940603C9
:1009B000BE016F5F7F4FD5018D919C910E945D02BA
:1009C000892B21F480E190E09D838C8329818C81A7
:1009D0009D8121110DC02A813B816216730641F46D
:1009E000883C910509F448C08B30910509F444C056
:1009F0008031910519F480EA91E005C089309105B4
:100A000049F48DE891E09F938F930E9406020F9026
:100A10000F9023C09F938F9383E791E09F938F93D1
:100A20000E9406028FEF89831B821A821D821C821C
:100A30000F900F900F900F900AE010E0D501ED910C
:100A4000FC9145E050E0BE016F5F7F4F8081918156
:100A50000E9456020150110989F7D501ED91FC91D0
:100A6000808191810E944F0268E873E180E090E00C
:100A70000E94B610912C17C00E948710F501608764
:100A8000718782879387648375838683978364875E
:100A90007587868797878CE691E09F938F930E9456
:100AA00006020F900F90892D26960FB6F894DEBFA0
:100AB0000FBECDBFDF91CF911F910F91FF90EF90AF
:100AC000DF90CF90BF90AF909F907F906F900895F0
:100AD0008F929F92AF92BF92CF92DF92EF92FF924E
:100AE0000F931F93CF93DF93CDB7DEB7C755D109CF
:100AF0000FB6F894DEBF0FBECDBF5C018B016A015B
:100B000068967FAF6EAF68977B01E40EF51E6E1599
:100B10007F0508F090C16EE571E0C8010E94801F5A
:100B2000892B91F44FE350E06BEF70E0CE0101961A
:100B30000E946E1FC12CD12CE12CF12C0FE310E090
:100B40009E012F5F3F4F63C0CE018A5A9F4F0E9484
:100B50008402FC01808191818E159F0508F06BC194
:100B600068968EAD9FAD68970E94501F982E892E73
:100B700063E671E0C8010E94801F892B09F04EC016
:100B8000CE01805C9F4F62969FAF8EAF6297649656
:100B90001FAE1EAE649780E190E066969FAF8EAF69
:100BA000669766E671E0CE01805B9F4F0E948E02E1
:100BB0004AE0BE016F5F7F4F892D982D0E94A31FD1
:100BC000BE016F5F7F4FCE01805B9F4F0E948E0200
:100BD000892D0E94A8124AE0BE016F5F7F4F0E94DC
:100BE000901FBE016F5F7F4FCE01805B9F4F0E94C1
:100BF0008E0264960EAD1FAD649701501109629686
:100C00002EAD3FAD6297C12CD12CE12CF12C40E0F0
:100C100050E064E1C5010E9406030DC169E671E080
:100C2000C8010E94801F892B61F5CE01805C9F4F17
:100C300062969FAF8EAF629764961FAE1EAE6497AA
:100C400080E190E066969FAF8EAF66976CE671E0AC
:100C5000CE01805B9F4F0E948E024AE0BE016F5F13
:100C60007F4F892D982D0E94A31FBE016F5F7F4F7C
:100C7000CE01805B9F4F0E948E02892D0E9434110D
:100C8000AACF6FE671E0C8010E94801F892B69F42A
:100C9000892D982D0E94C50EFC01009709F4CBC048
:100CA0009982CE0101960995C6C062E771E0C8013C
:100CB0000E94801F892B31F5CE018A5A9F4F0E94D6
:100CC0008402892D982D0E94D30EFC01009709F40F
:100CD000B2C021969FAE219768968EAD9FAD689762
:100CE000081B190B0C0D1D1D9A8389831C830B8314
:100CF0001E830D83BE016F5F7F4FCE01805C9F4FCF
:100D0000099599C065E771E0C8010E94801F892B91
:100D100031F1CE018A5A9F4F0E948402FC018081EA
:100D200091818E159F0508F086C032C0CE018A5A87
:100D30009F4F0E9484026896CEACDFAC689768E74C
:100D400071E0C6010E94801F892B89F460E0892D23
:100D50000E943912CE018A5A9F4F0E9484026896DF
:100D60008EAD9FAD68978E159F0500F3D2CF6BE7D0
:100D700071E0C6010E94801F892B09F450C06FE703
:100D800071E0C6010E94801F892B09F448C049C048
:100D900066E671E0C8010E94801F892B91F461E032
:100DA000892D0E94391268968EAD9FAD68970E947A
:100DB000501F61E0892B09F460E0892D0E947212B6
:100DC0003AC06CE671E0C8010E94801F892B59F47B
:100DD00068968EAD9FAD68970E94501FBC01892D0B
:100DE0000E94651128C01F930F9388EE90E09F9397
:100DF0008F930E940602F50144895589C12CD12C9C
:100E0000E12CF12C02E010E020E030E060E0C501D0
:100E10000E9406030F900F900F900F900CC061E09E
:100E200096CF63E871E0C6010E94801F892B09F00C
:100E300091CF62E08CCFC95ADF4F0FB6F894DEBF76
:100E40000FBECDBFDF91CF911F910F91FF90EF901B
:100E5000DF90CF90BF90AF909F908F9008958F922A
:100E60009F92AF92BF92CF92DF92EF92FF920F9339
:100E70001F93CF93DF9300D000D01F92CDB7DEB782
:100E80005C018DB69EB6BE016F5F7F4FDC018D9118
:100E90009C910E945D02009709F46DC097FD6DC0A2
:100EA0008A819B81892B09F468C0898181110FC0D7
:100EB0000E948710F501648375838683978381E0A0
:100EC0002C813D812530310509F058C056C0EC8099
:100ED000FD80F1E0EF16FF0608F04FC0C701019654
:100EE0002DB73EB7281B390B0FB6F8943EBF0FBE87
:100EF0002DBF0DB71EB70F5F1F4FD501ED91FC91B0
:100F0000A701B801808191810E943D17E816F9067A
:100F1000A1F5EC81FD81E00FF11F10820E94871086
:100F2000F501648375838683978389818F3099F077
:100F3000843189F0863009F54A815B81C12CD12C3E
:100F4000E12CF12C08EC10E020E030E060E0C5017D
:100F50000E94060310C08A819B81D50155969C93FF
:100F60008E9354974C815D81B801C5010E9468053C
:100F7000F501158A148A81E001C080E00FB6F8946B
:100F80009EBE0FBE8DBE0F900F900F900F900F90D2
:100F9000DF91CF911F910F91FF90EF90DF90CF9055
:100FA000BF90AF909F908F9008958F929F92AF9235
:100FB000BF92CF92DF92EF92FF920F931F93CF9346
:100FC000DF93EC01B62EE881F98180819181DC010B
:100FD000ED91FC910488F589E02D0995882319F09D
:100FE000B11078C007C0CE010E940A04182F8111E9
:100FF000F7CF7CC0E881F98180819181DC01ED919E
:10100000FC910480F581E02D0995181619060CF461
:1010100061C00E9487104B015C014C815D816E8133
:101020007F81D501C401841B950BA60BB70BAC01C6
:10103000BD0141389EE359076105710580F088EADA
:1010400091E09F938F930E940602E881F98180814D
:1010500091810E944F020F900F9010E047C04131E4
:1010600057426105710588F4488559856A857B85F5
:10107000D501C401841B950BA60BB70BAC01BD01B8
:10108000413157426105710518F14C855D856E85CA
:101090007F85D501C401841B950BA60BB70BAC0152
:1010A000BD01413D57406105710590F0C12CD12C27
:1010B000E12CF12C00E010E020E030E040E050E0D6
:1010C00066E0CE010E9406038C869D86AE86BF86B2
:1010D00011E00CC0CE010E942F07182F811199CF6B
:1010E000E881F981808191810E944F02812FDF91F7
:1010F000CF911F910F91FF90EF90DF90CF90BF9015
:10110000AF909F908F90089560E084EF91E00C94F1
:10111000D5070F93CF93DF9300E020E040E060E03D
:1011200089E692E00E9403166FE672E086E192E0A3
:101130000E94010E86E192E090930B0280930A02D6
:101140008CE092E00E94F9151092130210921202A4
:10115000109215021092140240ED57E060E070E02A
:1011600086E192E00E9437178AE092E09093F501C1
:101170008093F4011092F7011092F6011092F80199
:101180001092F9011092FA011092FB011092FC01E9
:101190001092FD011092FE011092FF0110920002C8
:1011A00010920102109202021092030210920402A5
:1011B0001092050210920602109207021092090284
:1011C00010920802CCEDD1E0CE010E949D0F239633
:1011D00081E0C43FD807C1F7DF91CF910F91089507
:1011E00086E192E00C94180EFC01238134812627BD
:1011F000022E2295207F2025032E322F22952F703C
:101200000226269532272327220F220F220F202580
:10121000FC01348323830895CF93DF93EC018D8108
:101220009E81DC01ED91FC916C810190F081E02DBB
:1012300009958D819E81DC01ED91FC910190F081F9
:10124000E02D6B81DF91CF9109948F929F92AF92A5
:10125000BF92CF92DF92EF92FF92CF93DF93EC0198
:101260006B010E9487104B015C01E12CF12C8D81F8
:101270009E81DC01ED91FC910680F781E02D0995BE
:1012800097FF0DC00E948710681979098A099B0988
:101290006C157D058E059F0550F38FEF9FEFDF9155
:1012A000CF91FF90EF90DF90CF90BF90AF909F9045
:1012B0008F900895CF93DF93EC018D819E81DC01A7
:1012C000ED91FC910480F581E02D09951816190621
:1012D00054F48D819E81DC01ED91FC910680F781B3
:1012E000E02D0995EACFDF91CF9108952F923F929B
:1012F0004F925F926F927F928F929F92AF92BF9226
:10130000CF92DF92EF92FF920F931F93CF93DF93D1
:10131000CDB7DEB72D970FB6F894DEBF0FBECDBFA9
:101320003C011B013C832B83BF82AE825801AC0C75
:10133000BD1CA40EB51EBD824B2C512CCA01860FBC
:10134000971F99878887D901A00FB11FBB87AA87EC
:10135000F601EE0DFF1DFD87EC87D30118968C91E9
:10136000581608F026C1EFEFFFEFD3011496FC9357
:10137000EE93139715968D919C911697DC01ED9144
:10138000FC910190F081E02D6FEF09956FEFC301A3
:101390000E94F408F30185819681DC01ED91FC91B6
:1013A0000190F081E02DD3016C910995F3016081EA
:1013B000C3010E94F408D30115968D919C91169754
:1013C000DC01ED91FC910190F081E02D6D8109959A
:1013D000642DC3010E94F408F30185819681DC012C
:1013E000ED91FC910190F081E02D6A2D09956A2D17
:1013F000C3010E94F408610188859985C816D90641
:10140000A1F0F301858196818601DC01ED91FC91CB
:101410000190F081E02DD6016D916D010995F801E3
:101420006081C3010E94F408E7CFCB80DC808A850D
:101430009B85C816D906B1F0D30115968D919C9164
:1014400016978601DC01ED91FC910190F081E02D71
:10145000D6016D916D010995F8016081C3010E946B
:10146000F408E5CF87018C859D8508171907B1F031
:10147000D30115968D919C9116976801DC01ED9131
:10148000FC910190F081E02DD8016D918D010995BD
:10149000F6016081C3010E94F408E5CFC3010E94F8
:1014A0000C0964E670E0C3010E9425098F3F910595
:1014B00009F074C0EFEFFFEFD3011496FC93EE93A5
:1014C00013976FEFC3010E94F40865E070E0C30159
:1014D0000E942509D3016C91262F30E082179307D3
:1014E00009F05CC0C3010E94F4086AE070E0C30127
:1014F0000E9425098C0197FD51C0682FC3010E94ED
:10150000F4086AE070E0C3010E9425096C0197FDB0
:1015100045C0682FC3010E94F4080A83198209811B
:101520001A810C0D1D1DC12CD12C65E070E0C3018A
:10153000C016D106A1F0C814D90489F00E9425096B
:1015400097FD09C0EE81FF81EC0DFD1D8083682FA2
:10155000C3010E94F408BFEFCB1ADB0AE6CF0E945A
:1015600025096C0197FD1AC065E070E0C3010E9477
:10157000250997FD13C0DC2CCC24C80ED91EF3011D
:10158000838194818C159D0549F480818F5F8083D0
:10159000C8018016910678F4C4010DC0539464E626
:1015A00070E080E090E00E94B610C3010E945A09EA
:1015B000D4CE8FEF9FEF2D960FB6F894DEBF0FBEFF
:1015C000CDBFDF91CF911F910F91FF90EF90DF90F2
:1015D000CF90BF90AF909F908F907F906F905F90D3
:1015E0004F903F902F9008953F924F925F926F924D
:1015F0007F928F929F92AF92BF92CF92DF92EF92A3
:10160000FF920F931F93CF93DF93CDB7DEB72E9743
:101610000FB6F894DEBF0FBECDBF3C01DC011796BC
:101620008C9117978111CFC081E017968C93C301DD
:101630000E945A0968EE73E080E090E00E94B610C4
:10164000F30185819681DC01ED91FC910480F581A7
:10165000E02D09951816190654F355E0552E44242B
:10166000439462E3362EEFE3F1E0DE011696852D1A
:1016700001900D928A95E1F7F3014086812C912C1F
:10168000A12CB12CC12CD12CE12CF12C00E010E0CC
:1016900020E030E045E050E0BE016A5F7F4FC301CB
:1016A0000E94760963E0D30115968D919C9116975F
:1016B0000E947F166AEF70E080E090E00E94B61012
:1016C00065E172E0F301858196810E945C166AEF04
:1016D00070E080E090E00E94B61063E172E0D30118
:1016E00015968D919C9116970E945C1664EF71E09F
:1016F00080E090E00E94B61067E072E0F30185811F
:1017000096810E945C1664EF71E080E090E00E9498
:10171000B610C3010E945A09E4E4F1E0DE0111961B
:10172000852D01900D928A95E1F7D30118963C9290
:1017300044E0842E912CFE013B965F0120E030E0D6
:1017400045E050E0BE016F5F7F4FC3010E94760904
:101750008F3FFFEF9F0739F468EE73E080E090E081
:101760000E94B61080CF2B852111FFCF049711F571
:101770002C8530E02053310944E6429FC001439F4D
:10178000900D11242D8530E0205331096AE0629FCD
:10179000A001639F500D1124840F951F2E8530E00A
:1017A00020533109820F931FD30112969C938E937D
:1017B000119705C084E690E0F3019283818382E370
:1017C000D30118968C932E960FB6F894DEBF0FBEF9
:1017D000CDBFDF91CF911F910F91FF90EF90DF90E0
:1017E000CF90BF90AF909F908F907F906F905F90C1
:1017F0004F903F90089510926F028FEF92E0909378
:101800007502809374021092760210927702909380
:101810007902809378020895FC01808908950895E3
:10182000EF92FF920F931F93CF93DF93CDB7DEB765
:1018300028970FB6F894DEBF0FBECDBF7C018B0199
:101840006AEC71E0CE0101964F8358870E94FA1B23
:1018500062E170E0CE0101960E94BD1BD801129694
:101860006C91CE0101960E944F1C6EE2CE01019652
:101870000E943C1CF8016381CE0101960E944F1C1E
:101880006EE2CE0101960E943C1CD80114966C9128
:10189000CE0101960E944F1C6EE2CE0101960E947D
:1018A0003C1CF8016581CE0101960E944F1CD701B6
:1018B000ED91FC9169817A810684F785E02D4F8155
:1018C0005885C70109958C01CE0101960E948C1B99
:1018D000C80128960FB6F894DEBF0FBECDBFDF91CA
:1018E000CF911F910F91FF90EF9008956F927F928B
:1018F0008F929F92AF92BF92CF92DF92EF92FF9220
:101900000F931F93CF93DF9300D0CDB7DEB7FC01C9
:101910009B013A0180898823C1F08CE68983868502
:101920008A83812C912CA12CB12CC12CD12CE12C9F
:10193000F12C8A0142E050E0BE016F5F7F4F848549
:1019400095850E947609C30102C080E090E00F9067
:101950000F90DF91CF911F910F91FF90EF90DF904B
:10196000CF90BF90AF909F908F907F906F90089591
:101970008F929F92AF92BF92CF92DF92EF92FF929F
:101980000F931F9348015901C12CD12CE12CF12C4C
:1019900000E010E020E030E00E9476091F910F91F6
:1019A000FF90EF90DF90CF90BF90AF909F908F907F
:1019B0000895EF92FF920F931F93CF93DF9300D080
:1019C000CDB7DEB77C01FC018089882389F08AE6E7
:1019D000898386858A8300E010E020E030E042E0E1
:1019E00050E0BE016F5F7F4F848595850E94B80CE3
:1019F000F701108A118A128A0F900F90DF91CF9110
:101A00001F910F91FF90EF900895EF92FF920F9327
:101A10001F93CF93DF9300D01F92CDB7DEB77C0129
:101A2000DC0150968C915097882301F1ED91FC9147
:101A30000480F581E02DC7010995892BC9F48CE458
:101A40008983F70186858A8301E010E09E012D5F7E
:101A50003F4F42E050E0BE016F5F7F4F8485958528
:101A60000E94B80C81E09B81913019F080E001C0A8
:101A700081E00F900F900F90DF91CF911F910F9108
:101A8000FF90EF9008956F927F928F929F92AF9206
:101A9000BF92CF92DF92EF92FF920F931F93CF935B
:101AA000DF93CDB7DEB727970FB6F894DEBF0FBE32
:101AB000CDBF3C019B0183E489835A834B83DB01C7
:101AC0000D900020E9F78D0101501109061B170B3D
:101AD00088248394912CFE0137965F01C12CD12C70
:101AE000E12CF12C43E050E0BE016F5F7F4FD3014A
:101AF0001C968D919C911D970E947609892BE1F18E
:101B00002F81822F90E0F3019787868783E68C836D
:101B10002D8301E010E09E012A5F3F4F42E050E03C
:101B2000BE016C5F7F4FD3011C968D919C911D97D8
:101B30000E94B80C8E81882339F061E070E080E06B
:101B400090E00E94B610E5CF81E0F301808B019018
:101B5000F081E02D0488F589E02DC30109958111FC
:101B60000EC0D301ED91FC910288F389E02DC301F1
:101B70000995F3011786168680E090E002C081E0A7
:101B800090E027960FB6F894DEBF0FBECDBFDF9171
:101B9000CF911F910F91FF90EF90DF90CF90BF906A
:101BA000AF909F908F907F906F9008950F931F93A9
:101BB000CF93DF9300D01F92CDB7DEB7FC018089B1
:101BC0008823A9F08CE6898386858A836B8300E06D
:101BD00010E020E030E043E050E0BE016F5F7F4F57
:101BE000848595850E94B80C81E090E002C080E079
:101BF00090E00F900F900F90DF91CF911F910F9178
:101C00000895FC01CB011382128248EE53E060E09C
:101C100070E044835583668377832AE831E031831B
:101C200020839587848717861686108A118A0895DF
:101C30002AE831E0FC01318320830895EF92FF927E
:101C40000F931F93CF93DF9300D01F92CDB7DEB7D2
:101C50007C01FC018189811117C0128A8BE4898380
:101C600086858A8380E48B8397012D5E3F4F00E455
:101C700010E043E050E0BE016F5F7F4F84859585A3
:101C80000E94B80CF701818B0F900F900F90DF919D
:101C9000CF911F910F91FF90EF900895CF93DF9315
:101CA000EC010E941E0E898990E0DF91CF9108958A
:101CB000CF93DF93EC010E941E0E8989882359F08F
:101CC0008150898B8A8991E0980F9A8BC80FD11D1A
:101CD0008B8990E002C08FEF9FEFDF91CF91089545
:101CE000CF92DF92EF92FF920F931F93CF93DF93E8
:101CF000EC016A018B01E12CF12C89898823A9F080
:101D00008FEFE81AF80A8A8991E0980F9A8BFE0102
:101D1000E80FF11D8389F80181938F018989815032
:101D2000898BEC14FD0448F306C0CE010E941E0E00
:101D300089898111E5CFC701DF91CF911F910F9163
:101D4000FF90EF90DF90CF900895CF93DF93EC0159
:101D50000E941E0E8989882331F08A89C80FD11DFF
:101D60008B8990E002C08FEF9FEFDF91CF910895B4
:101D70000F9300E020E040E060E08AE792E00E94FC
:101D800003160F910895089508958032910540F447
:101D9000FC01EE0FFF1FE95AFD4F859194910895C4
:101DA00080E090E008958032910540F4FC01EE0F50
:101DB000FF1FE95EFD4F85919491089580E090E0CA
:101DC00008951F920F920FB60F9211242F933F93F5
:101DD0004F935F936F937F938F939F93AF93BF9333
:101DE000EF93FF938091810287FF05C010928500D9
:101DF000109284001AC020918102332727FD30956C
:101E00008091800290E0281739077CF4809181024C
:101E1000992787FD9095FC01EE0FFF1FE80FF91F32
:101E2000EE57FD4F808186FD15C0809181028F5F46
:101E30008093810220918102332727FD3095809184
:101E4000800290E028173907BCF4809181028C3021
:101E50005CF112C080918102992787FD9095FC0169
:101E6000EE0FFF1FE80FF91FEE57FD4F808160E076
:101E70008F730E947212D9CF809184009091850057
:101E8000049680349C4918F480E49CE905C0809154
:101E90008400909185000496909389008093880037
:101EA0008FEF8093810238C02091840030918500AB
:101EB00080918102992787FD9095FC01EE0FFF1F0D
:101EC000E80FF91FEE57FD4F81819281820F931F1A
:101ED000909389008093880080918102992787FDE3
:101EE0009095FC01EE0FFF1FE80FF91FEE57FD4F15
:101EF000808186FF11C080918102992787FD90958E
:101F0000FC01EE0FFF1FE80FF91FEE57FD4F808118
:101F100061E08F730E947212FF91EF91BF91AF91B8
:101F20009F918F917F916F915F914F913F912F91F1
:101F30000F900FBE0F901F901895209180022C30AB
:101F4000A0F431E0320F30938002FC012083822F15
:101F500090E0FC01EE0FFF1FE80FF91FEE57FD4F59
:101F600088EB9BE09283818308952FEFFC0120830F
:101F70000895DF92EF92FF920F931F93CF93DF9319
:101F8000EC01D62E7A01890188818C3008F066C078
:101F900061E08D2D0E9439128881A82FB0E0FD01EB
:101FA000EE0FFF1FEA0FFB1FEE57FD4F2D2D2F7376
:101FB0009081907C922B908360E272E06E197F0991
:101FC00077FF02C06D5F7F4F759567957595679533
:101FD000698340E659E0401B510B57FF02C04D5F3B
:101FE0005F4F55954795559547954A836CE00E94FC
:101FF0002B1D9CE0899FB001112420E030E0A90155
:10200000460F571FFA01EE0FFF1FE40FF51FEE57A3
:10201000FD4F908196FD16C02F5F3F4F2C3031054C
:1020200071F781110FC01092800082E080938100CF
:102030001092850010928400B19A80916F008260A6
:1020400080936F00888190E0FC01EE0FFF1FE80F86
:10205000F91FEE57FD4F8081806480838881DF9176
:10206000CF911F910F91FF90EF90DF90089520E6A0
:1020700039E040E252E00C94B90F1F920F920FB674
:102080000F9211242F933F938F939F93AF93BF93FE
:102090008091A7029091A802A091A902B091AA02F2
:1020A0003091A60223E0230F2D3720F40196A11DC5
:1020B000B11D05C026E8230F0296A11DB11D209376
:1020C000A6028093A7029093A802A093A902B093BE
:1020D000AA028091AB029091AC02A091AD02B091A6
:1020E000AE020196A11DB11D8093AB029093AC028C
:1020F000A093AD02B093AE02BF91AF919F918F912B
:102100003F912F910F900FBE0F901F9018952FB7F2
:10211000F8946091A7027091A8028091A902909111
:10212000AA022FBF08953FB7F8948091AB02909117
:10213000AC02A091AD02B091AE0226B5A89B05C03D
:102140002F3F19F00196A11DB11D3FBF6627782FC3
:10215000892F9A2F620F711D811D911D42E0660F1C
:10216000771F881F991F4A95D1F70895CF92DF9264
:10217000EF92FF92CF93DF936B017C010E9493104B
:10218000EB01C114D104E104F10489F00E948F1C19
:102190000E9493106C1B7D0B683E734090F381E0AE
:1021A000C81AD108E108F108C851DC4FEACFDF9125
:1021B000CF91FF90EF90DF90CF900895789484B501
:1021C000826084BD84B5816084BD85B5826085BD33
:1021D00085B5816085BDEEE6F0E080818160808319
:1021E000E1E8F0E0108280818260808380818160FC
:1021F0008083E0E8F0E0808181608083E1E9F0E0C5
:10220000808182608083808181608083E0E9F0E06A
:10221000808181608083E1ECF0E080818460808354
:10222000808182608083808181608083E3ECF0E044
:10223000808181608083E0ECF0E080818260808337
:10224000E2ECF0E0808181608083EAE7F0E0808169
:1022500084608083808182608083808181608083CC
:102260008081806880830895823108F08251E82F50
:10227000F0E0E956FD4FE49180917B00E3FB2227DB
:1022800020F930E095E0220F331F9A95E1F78F7D1A
:10229000822B80937B00E77080912B0120E4829F4A
:1022A000C0011124E82BE0937C0080917A008064C7
:1022B00080937A0080917A0086FDFCCF809178002F
:1022C0002091790090E0922B08951F93CF93DF9394
:1022D000182FEB0161E00E943912209711F460E0A1
:1022E00004C0CF3FD10539F461E0812FDF91CF9158
:1022F0001F910C947212E12FF0E0ED55FD4F4491C7
:1023000050E0FA013197EF30F10508F06CC0EA5A5D
:10231000FF4F0C94591D84B5806884BDC7BD68C04B
:1023200084B5806284BDC8BD63C080918000806830
:1023300080938000D0938900C093880059C0809119
:102340008000806280938000D0938B00C0938A00CD
:102350004FC080918000886080938000D0938D0072
:10236000C0938C0045C0809190008068809390005D
:10237000D0939900C09398003BC0809190008062F8
:1023800080939000D0939B00C0939A0031C08091BD
:102390009000886080939000D0939D00C0939C0033
:1023A00027C08091C00080688093C0008091C000E9
:1023B0008F7B8093C000C093CF001AC08091C00073
:1023C00080628093C000C093D00012C08091C20090
:1023D00088608093C2008091C2008B7F8093C2008E
:1023E000C093D20005C0C038D1050CF07DCF77CFA7
:1023F000DF91CF911F91089590E0FC013197EF306C
:10240000F105B0F5EB59FF4F0C94591D80918000F8
:102410008F7703C0809180008F7D80938000089526
:1024200080918000877FF9CF84B58F7702C084B513
:102430008F7D84BD0895809190008F7707C0809133
:1024400090008F7D03C080919000877F80939000E3
:1024500008958091C0008F7703C08091C0008F7D68
:102460008093C00008958091C200877F8093C2004E
:102470000895CF93DF9390E0FC01EF53FD4F24913B
:10248000FC01E152FD4F8491882349F190E0880FCF
:10249000991FFC01E75EFC4FA591B491855F9C4FAD
:1024A000FC01C591D4919FB7611108C0F8948C913B
:1024B000209582238C93888182230AC0623051F454
:1024C000F8948C91322F309583238C938881822BC2
:1024D000888304C0F8948C91822B8C939FBFDF91EA
:1024E000CF9108950F931F93CF93DF931F92CDB792
:1024F000DEB7282F30E0F901ED55FD4F8491F90149
:10250000EF53FD4F1491F901E152FD4F0491002367
:10251000C9F0882321F069830E94FC116981E02FB2
:10252000F0E0EE0FFF1FE55FFC4FA591B4919FB760
:10253000F8948C91611103C01095812301C0812B07
:102540008C939FBF0F90DF91CF911F910F910895B2
:10255000CF93DF93282F30E0F901ED55FD4F8491A3
:10256000F901EF53FD4FD491F901E152FD4FC491B0
:10257000CC2391F081110E94FC11EC2FF0E0EE0FC2
:10258000FF1FE350FD4FA591B4912C912D2381E0C5
:1025900090E021F480E002C080E090E0DF91CF91F4
:1025A0000895CF93DF931F92CDB7DEB76983DC0127
:1025B000ED91FC910280F381E02D41E050E0BE01FD
:1025C0006F5F7F4F09950F90DF91CF910895CF9363
:1025D000DF93EC018C859D8597FF05C082E00E940A
:1025E00071189D878C878C859D85DF91CF9108958B
:1025F00083E00C94EC1AFC018485958597FD06C058
:1026000082E00E94191890E00196089582E00E94ED
:10261000191890E00895FC018485958597FD05C003
:102620002FEF3FEF35872487089582E00C947118CF
:10263000CF93DF93EC0180913701882331F083E061
:102640000E94A2181816190634F081E090E09B83CE
:102650008A8380E090E0DF91CF910895FC01208192
:102660002E5F208342E450E067E273E080E80C9440
:102670003D19FC0121818081813A59F4213209F010
:102680005CC047E050E060E371E080E00E943D19EB
:1026900067C0813209F051C0233289F4838190E010
:1026A000982F88273281832BA0E0B0E080932C0103
:1026B00090932D01A0932E01B0932F010FC02032D3
:1026C00039F467E070E080E391E00E946E190AC07F
:1026D000223221F482818093370104C02D7F203281
:1026E00009F03EC08091300190913101A0913201FA
:1026F000B0913301803B9440A105B10501F5809173
:10270000370180FD1CC080910008909101089093D2
:10271000FF0A8093FE0A87E797E79093010880936A
:1027200000082BE088E190E00FB6F894A89580931C
:1027300060000FBE2093600013C080E0089588E120
:102740000FB6F89480936000109260000FBEA895B9
:102750008091FE0A9091FF0A9093010880930008EF
:1027600081E008952FEF3FEFFC013587248708951E
:102770001092B2021092B10288EE93E0A0E0B0E0B5
:102780008093B3029093B402A093B502B093B602C3
:1027900086EA91E09093B0028093AF028FEF9FEFB3
:1027A0009093BC028093BB020895FC01818D228D21
:1027B00090E0805C9F4F821B91098F739927089549
:1027C000FC01918D828D981731F0828DE80FF11DFB
:1027D000858D90E008958FEF9FEF0895FC01918D16
:1027E000828D981761F0828DDF01A80FB11D5D9673
:1027F0008C91928D9F5F9F73928F90E008958FEFE1
:102800009FEF089582E795E1892B49F080E090E001
:10281000892B29F00E94721581110C9400000895F3
:10282000FC01848DDF01A80FB11DA35ABF4F2C916D
:10283000848D90E001968F739927848FA689B7893C
:102840002C93A089B1898C9180648C93938D848D15
:10285000981306C00288F389E02D80818F7D8083E4
:102860000895CF93DF93EC01888D8823C9F0EA891E
:10287000FB89808185FD05C0A889B9898C9186FD79
:102880000FC00FB607FCF5CF808185FFF2CFA88976
:10289000B9898C9185FFEDCFCE010E941014E7CF4E
:1028A000DF91CF910895CF92DF92FF920F931F9304
:1028B000CF93DF931F92CDB7DEB76C0181E0D601D5
:1028C00058968C9358975B969C915B975C968C91ED
:1028D0005C97981307C05096ED91FC9151978081B9
:1028E00085FD2EC0F601038D10E00F5F1F4F0F73A3
:1028F0001127F02EF601848DF81211C00FB607FCD7
:10290000F9CFD6015096ED91FC915197808185FFCA
:10291000F1CFC60169830E9410146981EBCF838DCA
:10292000E80FF11DE35AFF4F6083D6015B960C93CD
:102930005B975296ED91FC915397808180620CC019
:10294000D6015696ED91FC91579760835096ED9184
:10295000FC91519780818064808381E090E00F90AA
:10296000DF91CF911F910F91FF90DF90CF9008954D
:10297000BF92CF92DF92EF92FF92CF93DF93EC0161
:102980006A017B01B22EE889F98982E080834115D2
:1029900081EE580761057105A1F060E079E08DE3F3
:1029A00090E0A70196010E94371D2150310941098D
:1029B00051095695479537952795211580E1380798
:1029C00098F0E889F989108260E874E88EE190E077
:1029D000A70196010E94371D215031094109510973
:1029E0005695479537952795EC85FD853083EE857F
:1029F000FF852083188EEC89FD89B082EA89FB89E6
:102A0000808180618083EA89FB89808188608083FE
:102A1000EA89FB89808180688083EA89FB898081DB
:102A20008F7D8083DF91CF91FF90EF90DF90CF90EB
:102A3000BF9008951F920F920FB60F9211242F93FB
:102A40008F939F93EF93FF93E0910F03F091100307
:102A50008081E0911503F091160382FD12C09081F0
:102A6000809118038F5F8F7320911903821751F0A3
:102A7000E0911803F0E0E150FD4F958F809318032B
:102A800001C08081FF91EF919F918F912F910F90C5
:102A90000FBE0F901F9018951F920F920FB60F92B6
:102AA00011242F933F934F935F936F937F938F9353
:102AB0009F93AF93BF93EF93FF938FEF92E00E94AA
:102AC0001014FF91EF91BF91AF919F918F917F91E2
:102AD0006F915F914F913F912F910F900FBE0F908B
:102AE0001F9018958FEF92E00E94D51321E0892B5B
:102AF00009F420E0822F089510920203109201033E
:102B000088EE93E0A0E0B0E0809303039093040389
:102B1000A0930503B093060386EB91E09093000326
:102B20008093FF028DEC90E090930C0380930B0355
:102B30008CEC90E090930E0380930D0388EC90E072
:102B40009093100380930F0389EC90E0909312030D
:102B5000809311038AEC90E0909314038093130305
:102B60008EEC90E090931603809315031092180357
:102B70001092190310921A0310921B030895AF923A
:102B8000BF92CF92DF92EF92FF920F931F93CF935A
:102B9000DF936C017B01C0E0D0E000E010E0F601C3
:102BA000EC0FFD1F4AE050E06281C7010E9402174E
:102BB0005C016EE2C7010E947F168A0D9B1D080F03
:102BC000191F2196C330D10551F74AE050E0F601B4
:102BD0006581C7010E940217800F911FDF91CF917D
:102BE0001F910F91FF90EF90DF90CF90BF90AF902B
:102BF000089526EC31E0FC01318320831282138298
:102C00001482158208950F93FC0186EC91E0918364
:102C1000808362834383248305830F91089586EC28
:102C200091E090939D0380939C0310929E031092D9
:102C30009F031092A0031092A1030895CF92DF92F8
:102C4000EF92FF920F931F93CF93DF937C016A0162
:102C5000EB0100E010E00C151D0571F06991D70142
:102C6000ED91FC910190F081E02DC7010995892B30
:102C700019F00F5F1F4FEFCFC801DF91CF911F9168
:102C80000F91FF90EF90DF90CF900895611571053F
:102C900081F0DB010D900020E9F7AD0141505109B1
:102CA000461B570BDC01ED91FC910280F381E02D76
:102CB000099480E090E00895EF92FF920F931F93A4
:102CC000CF93DF938C017B01C0E0D0E0F701EC0FE4
:102CD000FD1F6491662359F0F801A081B181ED9147
:102CE000FC91C8010995892B11F02196EFCFCE01F7
:102CF000DF91CF911F910F91FF90EF900895DC012C
:102D0000ED91FC910190F081E02D099468EC71E067
:102D10000C9446160F931F93CF93DF93EC010E9400
:102D200046168C01CE010E948616800F911FDF91FE
:102D3000CF911F910F9108958F929F92AF92BF9262
:102D4000CF92DF92EF92FF920F931F93CF93DF9377
:102D5000CDB7DEB7A1970FB6F894DEBF0FBECDBFDB
:102D60007C01C42EE52FCB01D22E19A221E02D1516
:102D700010F02AE0D22E8E010F5D1F4F8D2C912C6A
:102D8000A12CB12C6C2D7E2FA50194010E94371D22
:102D90008C2DD29E80191124015011098A3014F40F
:102DA000805D01C0895CF8018083211531054105F2
:102DB000510521F0C22EE32FCA01E4CFB801C701AB
:102DC0000E944616A1960FB6F894DEBF0FBECDBF87
:102DD000DF91CF911F910F91FF90EF90DF90CF90F7
:102DE000BF90AF909F908F9008952115310541F4C9
:102DF000DC01ED91FC910190F081E02D642F0994AC
:102E00000C949C169A01462F50E060E070E00C9400
:102E1000F5160F931F93CF93DF93EC010E94871059
:102E2000688779878A879B87E881F9810680F7819F
:102E3000E02DCE01099597FF15C00E9487100885E7
:102E400019852A853B85601B710B820B930B0C81C6
:102E50001D812E813F81601771078207930720F340
:102E60008FEF9FEFDF91CF911F910F910895FC019C
:102E700044835583668377830895CF92DF92EF92E0
:102E8000FF920F931F93CF93DF937C016A01EB01B5
:102E900000E010E00C151D0549F0C7010E9409175C
:102EA00097FD04C089930F5F1F4FF4CFC801DF91D6
:102EB000CF911F910F91FF90EF90DF90CF900895E9
:102EC000615030F02091F100FC0120830196F8CF91
:102ED000289884E68093AB0308954091A60350910F
:102EE000A7032091A4033091A50342175307B4F41C
:102EF0009091E8009570E1F39091E80092FD19C07F
:102F00008093F1008091A6039091A70301968F739F
:102F10009927892B19F48EEF8093E8008091A603FE
:102F20009091A70301969093A7038093A60381E055
:102F3000089580E00895CF92DF92EF92FF920F9371
:102F40001F93CF93DF931F92CDB7DEB7082F162FB5
:102F5000F42E862F880F8E5F99830E946D1783E071
:102F60000E946D17E02EC02E9981D92E8C2D8E19BE
:102F7000811798F4F601F7FE02C0849101C08081A8
:102F80000E946D17082F80E00E946D178023FFEFCD
:102F9000CF1ADF0A8111EACF01C081E00F90DF91E3
:102FA000CF911F910F91FF90EF90DF90CF900895F8
:102FB0008091D70081608093D70080EA8093D80009
:102FC00089B5806189BD89B5826089BD09B400FE7B
:102FD000FDCF61E070E080E090E00E94B61080914B
:102FE000D8008F7C80618093D8008091E000807F42
:102FF0008093E0000895CF93DF931F92CDB7DEB7A3
:103000001982CE0101960E942E130E94171DBE0147
:103010006F5F7F4F0E94901C89810F90DF91CF914D
:1030200008952FB7FC012083F89467706093E9003E
:103030000895CF93DF931F92CDB7DEB7682FCE01EF
:1030400001960E9411188091F20099819FBF0F9004
:10305000DF91CF910895FF920F931F93CF93DF934A
:1030600000D0CDB7DEB7F62E8A019091AA0399233E
:1030700011F057FF03C08FEF9FEF2BC0682FCE01D9
:1030800001967A830E9411188091F20090E0A801C5
:103090007A81801791070CF4AC01EF2DF72FF40E15
:1030A00084E6FE1639F028988093AB039091F100E6
:1030B0009193F7CF4115510521F08091F2008823BB
:1030C00021F089818FBFCA0104C08BE68093E8009C
:1030D000F8CF0F900F90DF91CF911F910F91FF903C
:1030E0000895CF93DF931F92CDB7DEB741E050E054
:1030F000BE016F5F7F4F0E942B18019719F48981E1
:1031000090E002C08FEF9FEF0F90DF91CF91089575
:10311000CF93DF931F92CDB7DEB7682FCE01019614
:103120000E9411189091E800892F807295FF04C0C9
:103130009091F20080E4891B99819FBF0F90DF91ED
:10314000CF9108956F927F928F929F92AF92BF928C
:10315000CF92DF92EF92FF920F931F93CF93DF9363
:103160001F92CDB7DEB7782E7B01C42EB52E80918D
:10317000AA03882369F0042F152F8AEFD82E872DF4
:103180008072982E9AE3A92E872D8074882E11C004
:103190008FEF9FEF57C0872D0E948818682E8111EE
:1031A0000CC0DA94A9F361E070E080E090E00E9446
:1031B000B6100115110579F73BC0282F30E0021732
:1031C00013070CF4602E672DCE0101960E94111892
:1031D0008091E80085FF29C0262D30E0021B130BEB
:1031E000992039F06A948FEF6816B1F01092F100CF
:1031F000F9CFF701862D77FE07C0815058F09491E2
:103200009093F1003196F9CF815020F091919093F5
:10321000F100FACFE20EF31E8091E80085FF0FC0A7
:103220000115110511F481100AC089818FBFC1CF2A
:103230005D9884E68093AC038C2D9B2D03C0A092F7
:10324000E800F3CF0F90DF91CF911F910F91FF9086
:10325000EF90DF90CF90BF90AF909F908F907F9036
:103260006F9008951092E9001092A7031092A603A0
:103270009093A5038093A4030895CF92DF92FF92C9
:103280000F931F93CF93DF9300D0CDB7DEB7F82E07
:103290008A016B0101151105B1F0F601F7FE02C0BC
:1032A000849101C0808149835A830E946D17015027
:1032B0001109FFEFCF1ADF0A49815A818111EACF44
:1032C0008FEF9FEF01C0CA010F900F90DF91CF9158
:1032D0001F910F91FF90DF90CF9008951F93CF9390
:1032E000DF931F92CDB7DEB7162F2091E80022FFA3
:1032F000FCCF612F79830E9460178BEF8093E800E9
:10330000812F7981972F0F90DF91CF911F91089591
:103310001F920F920FB60F921124DF92EF92FF923D
:103320000F931F932F933F934F935F936F937F93CD
:103330008F939F93AF93BF93EF93FF93CF93DF93BD
:10334000CDB7DEB76C97DEBFCDBF1092E90080919C
:10335000E80083FF23C168E0CE0145960E94601714
:1033600082EF8093E8003D8937FF05C08091E80037
:1033700080FFFCCF03C08EEF8093E800832F807620
:1033800009F0F0C02E894F89D88C21110CC030383B
:1033900029F48091A9038093F10002C01092F100FA
:1033A0001092F100F4C0842F90E09D29213049F45F
:1033B0003111EDC0019709F0EAC08091A9038D7F1A
:1033C0000AC0233059F43111E2C0019709F0DFC07F
:1033D0008091A90382608093A903D9C0253041F46C
:1033E0008091E80080FFFCCF40684093E300CFC0AD
:1033F000263009F08DC0EB8CFC8C22E0D2122CC060
:1034000080E090E00E9432190E94FB1799E08E0143
:103410000F5F1F4FF801292F11922A95E9F7998321
:10342000DA8291E09E8390EA98879AEF99872091BB
:10343000A6033091A703275F3F4F3C832B838D83E7
:10344000C7010E94321949E050E0B80180E00E94B3
:103450003D190E94FB179BC0C7010E9432190E94B0
:10346000171DBE016B5E7F4F0E94B91C009719F0BB
:103470000CF08DC090C081E0D8120EC08B8D9C8D59
:10348000089719F481E08093A3038091A30381112D
:103490002FC06BE773E031C0E3E0DE127CC08F89A0
:1034A000882349F1823029F440E86BE089E993E010
:1034B0001CC0813029F440E86BE08DE893E015C032
:1034C000833009F068C00E94171D8E010F5F1F4FE7
:1034D000B8010E94D81CF80101900020E9F731974B
:1034E000E01BF10B40E06E2FC8010E949B174DC0FE
:1034F00069E673E002C065EA73E06115710509F4DD
:103500004AC0FB01449150E080E80E943D193FC051
:10351000273009F440C0283021F481E08093F10085
:1035200036C02930A1F53370B1F5E9E3F1E081E06F
:1035300021E036E39081992361F08093E9002093A4
:10354000EB0091919093EC003093ED008F5F87300A
:1035500089F78EE78093EA001092EA008F898093C2
:10356000AA0315C08B8D9C8D0E943219898D811103
:1035700005C0CE0145960E94391307C00E94171D51
:10358000BE016B5E7F4F0E94F71C882321F08EEFF7
:103590008093E80003C081E28093EB006C960FB645
:1035A000F894DEBF0FBECDBFDF91CF91FF91EF91B9
:1035B000BF91AF919F918F917F916F915F914F914B
:1035C0003F912F911F910F91FF90EF90DF900F90FF
:1035D0000FBE0F901F9018958093E9008091F20024
:1035E000882319F08AE38093E80008951F920F92D0
:1035F0000FB60F9211242F933F934F935F936F93C6
:103600007F938F939F93AF93BF93CF93EF93FF934A
:10361000C091E1008091E100837F8093E10080937D
:10362000E100C3FF0FC01092E90081E08093EB003E
:103630001092EC0082E38093ED001092AA0388E0E0
:103640008093F000C2FF19C083E00E94EC1A8091C1
:10365000AC03882339F08091AC0381508093AC0394
:10366000882389F18091AB03882339F08091AB03E3
:1036700081508093AB03882341F1C4FF10C0809137
:10368000E2008E7E81608093E2008091E1008F7E77
:103690008093E1008091A8038E7E806111C0C0FFFD
:1036A00016C08091E2008E7E80618093E20080915E
:1036B000E1008E7E8093E1008091A8038E7E816080
:1036C0008093A80304C05D9ACDCF289AD6CFFF91EE
:1036D000EF91CF91BF91AF919F918F917F916F911A
:1036E0005F914F913F912F910F900FBE0F901F90C0
:1036F00018951092AA031092A9031092A8030E9491
:10370000D817E1EEF0E080818E7E80838DE080939B
:10371000E200559A209A0895FC01808191810C94D1
:10372000F71DCF93DF93EC0188819981009711F009
:103730000E94F71D198218821D821C821B821A8228
:10374000DF91CF9108950F931F93CF93DF93EC01F7
:103750008B016F5F7F4F888199810E94861E009741
:1037600031F0998388831B830A8381E001C080E064
:10377000DF91CF911F910F910895CF93DF93EC01CB
:1037800088819981892B29F08A819B8186179707E7
:1037900060F4CE010E94A31B882341F08C819D819F
:1037A000892B19F4E881F981108281E0DF91CF91B2
:1037B0000895EF92FF920F931F93CF93DF93EC0145
:1037C0007B018A01BA010E94BD1B811104C0CE0198
:1037D0000E94911B07C01D830C83B70188819981CA
:1037E0000E94891FCE01DF91CF911F910F91FF9011
:1037F000EF900895FC0111821082138212821582CB
:1038000014826115710559F0FB0101900020E9F760
:10381000AF0141505109461B570B0C94D91B089519
:10382000EF92FF920F931F93CF93DF93EC017B01F5
:103830000C811D816115710511F480E016C04115E0
:10384000510591F0040F151FB8010E94BD1B88237C
:10385000A1F3288139818C819D81B701820F931F4B
:103860000E94891F1D830C8381E0DF91CF911F91FE
:103870000F91FF90EF900895CF93DF9300D0CDB7D5
:10388000DEB769831A8241E050E0BE016F5F7F4F6F
:103890000E94101C0F900F90DF91CF910895EF922E
:1038A000FF920F931F93CF93DF9300D000D0CDB73B
:1038B000DEB77C01862F4AE08E010F5F1F4FB801F3
:1038C00090E00E94901FF80101900020E9F7AF01FD
:1038D00041505109401B510BB801C7010E94101CF7
:1038E0000F900F900F900F90DF91CF911F910F913C
:1038F000FF90EF90089508950E94DE100E947B1CB7
:1039000082EA93E00E94791B0E94B602C2E0D4E1F1
:103910000E9484082097E1F30E940214F9CF0895D1
:10392000EF92FF920F931F93CF93DF937B01FC01E4
:10393000C281D38100E010E0209781F0E881F98115
:103940000280F381E02DB701CE01099597FD08C0F3
:10395000080F191F0884D985C02DEECFC80102C0F9
:103960008FEF9FEFDF91CF911F910F91FF90EF901D
:1039700008950F931F93CF93DF938B01FC01C281B6
:10398000D381209771F0E881F9810480F581E02DE1
:10399000B801CE010995009731F40884D985C02D6E
:1039A000F0CF80E090E0DF91CF911F910F910895CB
:1039B0000F931F93CF93DF938B01FC01C281D381BF
:1039C000209771F0E881F9810680F781E02DB80138
:1039D000CE010995080F111D0884D985C02DF0CF9F
:1039E000F8011082DF91CF911F910F9108950F93ED
:1039F0001F93CF93DF938B01FC01C281D38120976A
:103A000071F0E881F9810190F081E02DB801CE01DB
:103A10000995811106C00884D985C02DF0CF80E0BA
:103A200001C081E0DF91CF911F910F9108958091A6
:103A3000B10381110DC082E08093AD0384E08093D7
:103A4000AE031092B0031092AF0381E08093B103F4
:103A50008DEA93E00895991B79E004C0991F9617A9
:103A600008F0961B881F7A95C9F780950895A1E202
:103A70001A2EAA1BBB1BFD010DC0AA1FBB1FEE1FE8
:103A8000FF1FA217B307E407F50720F0A21BB30B33
:103A9000E40BF50B661F771F881F991F1A9469F7AF
:103AA00060957095809590959B01AC01BD01CF010B
:103AB0000895EE0FFF1F0590F491E02D0994CF9328
:103AC000DF938230910510F482E090E0E091BB0337
:103AD000F091BC0320E030E0A0E0B0E0309739F195
:103AE0004081518148175907B8F04817590771F4B8
:103AF00082819381109729F013969C938E9312974D
:103B00002CC09093BC038093BB0327C021153105C3
:103B100031F04217530718F0A901DB0101C0EF0192
:103B20009A01BD01DF010280F381E02DD7CF21157D
:103B30003105F9F0281B390B2430310580F48A81D6
:103B40009B816115710521F0FB019383828304C081
:103B50009093BC038093BB03FE01329644C0FE01E8
:103B6000E20FF31F81939193225031093983288307
:103B70003AC02091B9033091BA03232B41F420912C
:103B80000201309103013093BA032093B9032091CD
:103B90000001309101012115310541F42DB73EB7E7
:103BA0004091040150910501241B350BE091B903AC
:103BB000F091BA03E217F307A0F42E1B3F0B28176E
:103BC000390778F0AC014E5F5F4F2417350748F096
:103BD0004E0F5F1F5093BA034093B90381939193A3
:103BE00002C0E0E0F0E0CF01DF91CF910895CF93E4
:103BF000DF93009709F487C0FC0132971382128289
:103C0000C091BB03D091BC03209781F42081318106
:103C1000280F391F8091B9039091BA038217930737
:103C200079F5F093BA03E093B9036DC0DE0120E0AB
:103C300030E0AE17BF0750F412964D915C91139788
:103C40009D014115510509F1DA01F3CFB383A28338
:103C500040815181840F951F8A179B0771F48D91C4
:103C60009C911197840F951F0296918380831296E1
:103C70008D919C911397938382832115310529F4AB
:103C8000F093BC03E093BB033EC0D9011396FC93B1
:103C9000EE9312974D915D91A40FB51FEA17FB07A4
:103CA00079F480819181840F951F0296D901119634
:103CB0009C938E938281938113969C938E931297FB
:103CC000E0E0F0E08A819B81009719F0FE01EC01B1
:103CD000F9CFCE01029628813981820F931F20915E
:103CE000B9033091BA032817390769F4309729F4DA
:103CF0001092BC031092BB0302C013821282D093B5
:103D0000BA03C093B903DF91CF910895A0E0B0E06A
:103D1000ECE8FEE10C947522EC01CB01209719F43C
:103D20000E945F1DB8C0FE01E60FF71F9E012250E2
:103D30003109E217F30708F4ACC0D9010D911C91C9
:103D4000119706171707B8F00530110508F49FC042
:103D5000A801445051094617570708F498C002506B
:103D60001109061B170B019311936D937C93CF01DF
:103D70000E94F71D8CC05B01A01AB10A4E01800E93
:103D8000911EA091BB03B091BC03612C712C60E02B
:103D900070E0109709F449C0A815B905C9F5ED9070
:103DA000FC901197670142E0C40ED11CCA14DB04D9
:103DB00078F147018A189B08640142E0C40ED11CC7
:103DC0001296BC9012971396AC91B5E0CB16D10425
:103DD00040F0B282A38391828082D9018D939C931B
:103DE00009C00E5F1F4F0E0D1F1DF90111830083C7
:103DF000EB2DFA2F6115710531F0DB011396FC9361
:103E0000EE93129744C0F093BC03E093BB033FC012
:103E10006D917C9111976616770608F43B01BD0100
:103E200012960D90BC91A02DB4CF6091B903709102
:103E3000BA0368157905E9F468167906D0F440915B
:103E40000001509101014115510541F44DB75EB794
:103E50006091040170910501461B570BE417F507AB
:103E6000C0F4F093BA03E093B903F901918380831E
:103E70000EC00E945F1D7C01009759F0A801BE0191
:103E80000E94771FCE010E94F71DC70104C0CE011A
:103E900002C080E090E0CDB7DEB7EEE00C94912256
:103EA000FC0188279927E89421912032E9F32930F1
:103EB00010F02E30C8F32B3241F02D3239F46894D3
:103EC00004C00E949B1F820F911D219120532A3014
:103ED000C0F31EF4909581959F4F0895FB01DC017E
:103EE00002C005900D9241505040D8F70895FB0153
:103EF000DC0102C001900D9241505040D8F7089566
:103F0000FB01DC018D91019080190110D9F3990B0F
:103F10000895FB01DC0101900D920020E1F7089566
:103F2000BB274A3031F4992322F4BDE29095819564
:103F30009F4F0C94A41F7AE0979F902D879F802D10
:103F4000910D11240895BB27FB015527AA27880F3F
:103F5000991FAA1FA41710F0A41B83955051B9F7FD
:103F6000A05DAA3308F0A95DA193009779F7B1117C
:103F7000B1931192CB010C94D121AEE0B0E0E3EC0F
:103F8000FFE10C947F228C01CA014EE04C831A831E
:103F9000098377FF02C060E070E8615071097E8399
:103FA0006D83A901BC01CE0101960E94E91F4D81DC
:103FB0005E8157FD0AC02F813885421753070CF4E4
:103FC0009A01F801E20FF31F10822E96E4E00C94A0
:103FD0009B22ACE0B0E0EFEEFFE10C9471227C019B
:103FE0006B018A01FC0117821682838181FFBDC1AA
:103FF000CE0101964C01F7019381F60193FD859165
:1040000093FF81916F01882309F4ABC1853239F4A4
:1040100093FD859193FF81916F01853229F4B7015A
:1040200090E00E94E121E7CF512C312C20E020329A
:10403000A0F48B3269F030F4803259F0833269F4A5
:1040400020612CC08D3239F0803339F4216026C0D4
:104050002260246023C0286021C027FD27C030EDE6
:10406000380F3A3078F426FF06C0FAE05F9E300D34
:104070001124532E13C08AE0389E300D1124332EA4
:1040800020620CC08E3221F426FD6BC1206406C074
:104090008C3611F4206802C0883641F4F60193FD95
:1040A000859193FF81916F018111C1CF982F9F7DE1
:1040B0009554933028F40C5F1F4FFFE3F9830DC034
:1040C000833631F0833771F0833509F05BC022C04D
:1040D000F801808189830E5F1F4F44244394512C43
:1040E000540115C03801F2E06F0E711CF801A08078
:1040F000B18026FF03C0652D70E002C06FEF7FEF37
:10410000C5012C870E94C6212C0183012C852F77A5
:10411000222E17C03801F2E06F0E711CF801A0804A
:10412000B18026FF03C0652D70E002C06FEF7FEF06
:10413000C5012C870E94BB212C012C852068222ED2
:10414000830123FC1BC0832D90E048165906B0F470
:10415000B70180E290E00E94E1213A94F4CFF501AA
:1041600027FC859127FE81915F01B70190E00E94B5
:10417000E12131103A94F1E04F1A510841145104F1
:1041800071F7E5C0843611F0893639F5F80127FF5B
:1041900007C060817181828193810C5F1F4F08C0CD
:1041A00060817181882777FD8095982F0E5F1F4F62
:1041B0002F76B22E97FF09C09095809570956195E6
:1041C0007F4F8F4F9F4F2068B22E2AE030E0A4012E
:1041D0000E941322A82EA81844C0853729F42F7EE8
:1041E000B22E2AE030E025C0F22FF97FBF2E8F36A5
:1041F000C1F018F4883579F0B4C0803719F08837E9
:1042000021F0AFC02F2F2061B22EB4FE0DC08B2D38
:104210008460B82E09C024FF0AC09F2F9660B92E73
:1042200006C028E030E005C020E130E002C020E117
:1042300032E0F801B7FE07C060817181828193810D
:104240000C5F1F4F06C06081718180E090E00E5FBF
:104250001F4FA4010E941322A82EA818FB2DFF7740
:10426000BF2EB6FE0BC02B2D2E7FA51450F4B4FE2E
:104270000AC0B2FC08C02B2D2E7E05C07A2C2B2D37
:1042800003C07A2C01C0752C24FF0DC0FE01EA0D7D
:10429000F11D8081803311F4297E09C022FF06C000
:1042A0007394739404C0822F867809F0739423FD6D
:1042B00013C020FF06C05A2C731418F4530C57185F
:1042C000732C731468F4B70180E290E02C870E948D
:1042D000E12173942C85F5CF731410F4371801C0C5
:1042E000312C24FF12C0B70180E390E02C870E949C
:1042F000E1212C8522FF17C021FF03C088E590E053
:1043000002C088E790E0B7010CC0822F867859F090
:1043100021FD02C080E201C08BE227FD8DE2B701E2
:1043200090E00E94E121A51438F4B70180E390E009
:104330000E94E1215A94F7CFAA94F401EA0DF11DED
:104340008081B70190E00E94E121A110F5CF3320D8
:1043500009F451CEB70180E290E00E94E1213A9445
:10436000F6CFF7018681978102C08FEF9FEF2C96E1
:10437000E2E10C948D22FC01059061507040011027
:10438000D8F7809590958E0F9F1F0895FC0161507E
:10439000704001900110D8F7809590958E0F9F1F67
:1043A0000895DC01FC01672F71917723E1F73297C3
:1043B00004C07C916D9370836291AE17BF07C8F300
:1043C00008950F931F93CF93DF93182F092FEB01BD
:1043D0008B8181FD03C08FEF9FEF20C082FF10C053
:1043E0004E815F812C813D81421753077CF4E88127
:1043F000F9819F012F5F3F4F39832883108306C0C7
:10440000E885F985812F0995892B29F72E813F8130
:104410002F5F3F4F3F832E83812F902FDF91CF91CE
:104420001F910F910895FA01AA27283051F12031E8
:1044300081F1E8946F936E7F6E5F7F4F8F4F9F4F38
:10444000AF4FB1E03ED0B4E03CD0670F781F891F7A
:104450009A1FA11D680F791F8A1F911DA11D6A0F48
:10446000711D811D911DA11D20D009F468943F91FB
:104470002AE0269F11243019305D3193DEF6CF01FA
:104480000895462F4770405D4193B3E00FD0C9F7C0
:10449000F6CF462F4F70405D4A3318F0495D31FD2D
:1044A0004052419302D0A9F7EACFB4E0A695979580
:1044B000879577956795BA95C9F700976105710556
:1044C00008959B01AC010A2E0694579547953795A0
:1044D0002795BA95C9F7620F731F841F951FA01DFA
:1044E00008952F923F924F925F926F927F928F9298
:1044F0009F92AF92BF92CF92DF92EF92FF920F9373
:104500001F93CF93DF93CDB7DEB7CA1BDB0B0FB67C
:10451000F894DEBF0FBECDBF09942A883988488839
:104520005F846E847D848C849B84AA84B984C884CF
:10453000DF80EE80FD800C811B81AA81B981CE0FC6
:10454000D11D0FB6F894DEBF0FBECDBFED010895AB
:1045500013E0C6EBD3E004C0FE010E945B1D22966F
:0A456000C83BD107C9F7F894FFCF5C
:10456A000000BD0380000100000038366664343163
:10457A0064386630626234323339626235653034A7
:10458A00363932373236383261650001FFFFFFFFB4
:10459A0000E100000000000000C180810000005816
:1045AA00585858585858313030636C6F75642E62B9
:1045BA006C796E6B2E636300666C6F6F6400696E54
:1045CA00666F00647200647700617200617700763A
:1045DA007200767700706D00696E006F75740070F6
:1045EA00776D0070750000000000D60D760C4E0E37
:1045FA00580EA50E0F0C100C430D700ED90C050D9C
:10460A000C0C00000000D1121813FB120B13E71256
:10461A00F8120000000053141E16D513EE13E0130F
:10462A00311400000000BF150D0A006E616E0069AA
:0A463A006E66006F7666002E000029
:00000001FF
